:100000000EC028C076C165C125C024C023C022C04F
:1000100021C020C082C11EC048C11CC01BC0112409
:100020001FBECFE5D2E0DEBFCDBF10E0A0E6B0E05E
:10003000EEE0F7E002C005900D92AA36B107D9F7BD
:1000400020E0AAE6B0E001C01D92AA37B207E1F7AE
:1000500089D15BC3D5CFBC01209160003091610094
:10006000C901817099279195819591098827947B81
:10007000369527958227932790936100809360009F
:100080001DD30895F89414BE88E981BD81E681BD31
:10009000A8957894089580B58E7F80BD86B1806CD8
:1000A00086B93699FECF24B135B1379890B59160B5
:1000B00090BDC9010895982F81E080936B008091D5
:1000C0006A00882309F1692F70E0292F269526956B
:1000D0002695263008F426E080916A0030E09817D3
:1000E00050F440916A0050E0461B570B81E04217E4
:1000F000530754F008C080916A00681B710981E0C1
:10010000621773070CF080E00895CF92DF92EF92B0
:10011000FF92CF93B49B02C08FEF55C081E08093D4
:100120006B0080916B008111FCCF8CE8C4DF8823C9
:1001300099F380916B008111FCCF86E4BCDF8823AA
:1001400059F3C0E2F694E794D794C79480916B007A
:100150008111FCCF88E0AFDF8823F1F280916B0042
:100160008111FCCF8AE1A7DF882319F06894F7F8A2
:1001700004C088E0A0DF882379F2C15019F780918C
:100180006B008111FCCF88E096DF882329F2C7013C
:10019000AA27BB274F2D552766277727282F30E022
:1001A000420F531F4F3F51050CF4B6CF2C2D30E0BA
:1001B0002D0D311D2F3F310509F4AECFC1142FEEA7
:1001C000D20609F0A9CFCF91FF90EF90DF90CF90AA
:1001D000089598E0C39A87FFC39800C0C398880F1A
:1001E0009150C1F70895CF93DF93EC018F3F9105B4
:1001F00009F02CF497FF05C0C0E0D0E002C0CFEFBB
:10020000D0E0CE0195958795E4DFCE019595879551
:1002100095958795DEDFCE0145E0959587954A95C2
:10022000E1F7DF91CF91D5CFCF93F894CCE080E088
:10023000D0DFC150E1F7789485EF91E00197F1F7B5
:1002400000C00000B49918C060DF8330A9F4109298
:100250007900F8948091710090917200A0917300E0
:10026000B091740078948093750090937600A09379
:100270007700B093780017C080917900882321F02F
:100280000ADF8538934078F48AB780628ABF80910C
:1002900079008111F7DE85B7806285BF889585B7C3
:1002A0008F7D85BFCFCFCF9108951F920F920FB64C
:1002B0000F9211248F930FB6F894A89581B5886199
:1002C00081BD11BC0FBE8F910F900FBE0F901F907C
:1002D00018951F920F920FB60F92112410BE1FBCDB
:1002E00010926B0010926A000F900FBE0F901F903B
:1002F00018951F920F920FB60F9211248F938FB5FE
:1003000080936A001FBC8AE080BF10926B008F91BF
:100310000F900FBE0F901F9018951F920F920FB65F
:100320000F9211248F939F93AF93BF93809171008D
:1003300090917200A0917300B09174000196A11D7C
:10034000B11D8093710090937200A0937300B093DD
:100350007400BF91AF919F918F910F900FBE0F903E
:100360001F9018958FDE80E888B98FE084BB93E0FA
:1003700090BD85B7877E806185BFBB9A86E086B9D0
:1003800017B88CE789BD82E08ABD93BF89B78061C9
:1003900089BFBC98AC9A8BB780628BBF8AEE8EBD4A
:1003A0001FBC89B7806489BF7894812C912C54013B
:1003B000F8EE6F2EF3E07F2EA4E6EA2EF12CBCE9D6
:1003C000CB2EDD24DA94CAE02C2E312CF8948091C7
:1003D000710090917200A0917300B09174007894B4
:1003E00088199909AA09BB094A97A105B10508F41A
:1003F000F2C0809168009091690081309E4158F070
:1004000080ED97E028DE059730F480E098E7909340
:10041000690080936800C0916800D09169008D2FB9
:1004200090E019DE5E01AB2CBB24A6948C010A1966
:100430001B098D2F90E00FDE9C012A193B09C11585
:1004400095E0D90728F430926700209266000AC030
:10045000C1304CE3D40730F086EF9FEF90936700F4
:10046000809366008091660090916700C80FD91F45
:10047000D0936900C093680080916F0090917000E4
:10048000AC015595479555954795040F151F40911B
:10049000640050916500040F151F109365000093D0
:1004A0006400E0916D00F0916E00AF0155954795A5
:1004B00055954795420F531F20916200309163007C
:1004C000240F351F30936300209362000C391F4FB7
:1004D00024F4D0926500C092640040916400509171
:1004E00065004536510524F0F0926500E092640005
:1004F0002C393F4F24F4D0926300C09262002091C7
:100500006200309163002536310524F0F0926300DB
:10051000E092620020916C002F5F20936C002370AA
:1005200099F467EE73E0B9D0B301DCD0709370003A
:1005300060936F00CF0167EE73E0AFD0B301D2D00C
:1005400070936E0060936D0080916F0090917000C9
:100550002091640030916500821B930B9093700092
:1005600080936F0080916D0090916E0020916200E9
:1005700030916300821B930B90936E0080936D000B
:10058000F894C0916400D091650090E8A92EB12C38
:10059000AC1ABD0A0091620010916300C501801B76
:1005A000910B21DEC058DF4FCE01801B910B1BDE6B
:1005B000C8018C0F9D1F17DEC501800F911F13DE30
:1005C0007894F8948090710090907200A0907300DD
:1005D000B09074007894B49934C097DD833061F59D
:1005E000412C512CF894E201CC0FDD1FC40DD51D18
:1005F000229600E010E0C017D10711F480E801C096
:1006000080E0E7DD0F5F1F4F0C301105A1F77894F4
:100610008FE79AE126E0815090402040E1F700C04A
:1006200000004FEF441A540A84E048165104D1F6F2
:1006300091E09093790005C0823019F4109279000E
:10064000F3DD80917900882351F025DD80329340DD
:1006500008F0BCCEE9DD809179008111B7CEF89425
:100660008091710090917200A0917300B09174001C
:100670007894409175005091760060917700709168
:100680007800841B950BA60BB70B81309749A944C2
:10069000B14008F49BCEC8DD99CE0024552704C094
:1006A000080E591F880F991F009729F076956795B6
:1006B000B8F37105B9F7802D952F0895AA1BBB1BC0
:1006C00051E107C0AA1FBB1FA617B70710F0A61B52
:1006D000B70B881F991F5A95A9F780959095BC0173
:1006E000CD01089597FB072E16F4009406D077FDF0
:1006F00008D0E4DF07FC05D03EF4909581959F4F2C
:0E0700000895709561957F4F0895F894FFCF8E
:0A070E00E1AC320064000A000005AF
:00000001FF
